:200000007581607411C0E0780579007A00888089908AA075B000D0E0FE8EB0EE23C0E031B7
:200020007031707400686018E814F875F01084E5F0B40F08E8141414141414F8888080D618
:200040007859E96400601AE914F975F01084E5F0B40F08E9141414141414F988808990807E
:20006000B57959EA6400601CEA14FA75F01084E5F0B40F08EA141414141414FA8880899021
:200080008AA08092780079007A00888089908AA011950200077E0D7B00EB9002269360F72C
:2000A000FF0BEB93FA31841EEE60030B80EB22317AE580B403030200BA22E580B400FB7BCB
:2000C000007C007D008580F0E5F0B403030200E6E5F0B401030200F57C00E5F0B40203022B
:2000E00001067D0080DF317AE580B403D8E580B400FB02014DBC010280CB7C010B74036BA6
:2001000070027B0080BFBD010280BA7D0174006B600C74016B601674026B6020802DE82480
:2001200001D4F86460700278008880801EE92401D4F96460700279008990800FEA2401D489
:20014000FA642470027A008AA0800001C5227520E17521FAD521FDE5806403700211AFD5D3
:2001600020EF227520E17521FAD521FDD520F72275220812014ED522FA227523081201631E
:20018000D523FA22EA2370027401FA3190DAFC22EF9001ED93FCEF9001B493FD31A1DDFC39
:2001A00022D2B031AAC2B031AA22ECF8790300D9FDD8F922FDD8F922D8F9221600191516EB
:2001C0000019001515160019001C15160019001C1515160019001C001F21002500292C0002
:2001E000313437003E41004900525700625257006257006277006A7E77006A007E7E770019
:200200006A005E7E77006A005E7E7E77006A005E00544F0046003F3B0035322F002A2700D4
:0C02200023001F1DC01A22022502290223
:00000001FF
