:030000000200D02B
:0C00D000787FE4F6D8FD7581090200DCA1
:10008600D4D4BED49FA9D4D4BED48E9FD4D46A7EF1
:1000960081A9BE77777E9F8E9F0009030C0C0C18F2
:1000A60009030C0C0C1809030C0C0C0C0C09030CA2
:0400B6000C0C180016
:1000BA00EF1FAA0670011E4A600BE4FDEDC3947897
:0500CA0050EE0D80F76F
:0100CF00220E
:10000300E4F508F50974A02509F58274003508F5AF
:1000130083E493701074862509F58274003508F51E
:1000230083E493605DE4FDFC74A02509F58274000C
:100033003508F583E49375F014A4FFC3ED9FEC95A5
:10004300F0502EB290E4FFFE74862509F582740009
:100053003508F583E49375F00384FBC3EF9BEE94BB
:100063000050070FBF00010E80DE0DBD00010C80A4
:10007300B77F0A7E001200BA0509E50970870508F3
:02008300808378
:010085002258
:0C00DC001200037FF47E011200BA80F4D1
:00000001FF
