:03000000020003F8
:0C000300787FE4F6D8FD75810A02004AFF
:100136003F065B4F666D7D077F6F777C395E797111
:0101460000B8
:07015500010A10020800106E
:0D014700EFD3940040077E7CDEFE1F80F3A6
:010154002288
:10008F0075B00F7F017E00120147E5B0640F24FEAB
:10009F00601324FE601724FC601B2407701FE4F517
:1000AF0008F509801E75080075090480167508008B
:1000BF00750908800E75080075090C800675080013
:1000CF0075091075B0F0E5B064F024E0600B24E022
:1000DF00601024C060102470220509E50970120514
:1000EF0008227402800274032509F509E43508F526
:0100FF0008F8
:0101000022DC
:1001010075803F75B0F0E5B064F0600312008FE5D3
:100111000A65097002E508601374362509F58274D1
:10012100013508F583E493F58085090A7FD07E07C0
:0501310012014780CE21
:10000F00020101E493A3F8E493A34003F68001F205
:10001F0008DFF48029E493A3F85407240CC8C333F2
:10002F00C4540F4420C8834004F456800146F6DFC1
:10003F00E4800B0102040810204080900155E47EFB
:10004F00019360BCA3FF543F30E509541FFEE493B6
:10005F00A360010ECF54C025E060A840B8E493A37D
:10006F00FAE493A3F8E493A3C8C582C8CAC583CAA8
:10007F00F0A3C8C582C8CAC583CADFE9DEE780BE60
:01015C0000A2
:00000001FF
