:200000000200307581604387805389802389204398D0758BF7758DF7D28E308013E599C2E8
:2000200098B4F0F6A2D0929BF5993099FDC29930758160C2B77590FFC2B5C2B2C2B3C2B467
:2000400000E590540F754708C2B5C2B2C2B3D2B400E590540F754607C2B5C2B2D2B3C2B49E
:2000600000E590540F754506C2B5C2B2D2B3D2B400E590540F754405C2B5D2B2C2B3C2B476
:2000800000E590540F754304C2B5D2B2C2B3D2B400E590540F754203C2B5D2B2D2B3C2B44E
:2000A00000E590540F754102C2B5D2B2D2B3D2B400E590540F7540017548AA7549AA754A8E
:2000C000AA754BAA754CAA754DAA754EAA754FAA120112D2B5C2B2C2B3C2B4E552C4F590CF
:2000E00000C2B7D2B7C2B7D2B5C2B2C2B3D2B4E551C4F59000C2B7D2B7C2B7D2B5C2B2D2C8
:20010000B3C2B4E550C4F59000C2B7D2B7C2B70200304387805389CF4389204398D0758BFF
:20012000F7758DF7D28E3098FDE599C298B4F0F6A2D0929BF5993099FDC2993098FDE599A7
:20014000C298B4A003020179B4AFDB74AFA2D0929BF5993099FDC29979087840E6A2D092A0
:200160009BF5993099FDC29908D9F174FFA2D0929BF5993099FDC29922790378503098FD77
:18018000A699C29808D9F63098FDC29874A0A2D0F5993099FDC2992281
:00000001FF
