:20000000020030FFFFFFFFFFFFFFFF8023FFFFFFFFFFFFFFFFFFFFFFFFFFFF8013FFFFFF91
:20002000FFFFFFFFFFFFFFFFFFFFFFFFFFFFFFFF758160C2B77590FFC2B5C2B2C2B3C2B427
:2000400000E590540FF547C2B5C2B2C2B3D2B400E590540FF546C2B5C2B2D2B3C2B400E5C8
:2000600090540FF545C2B5C2B2D2B3D2B400E590540FF544C2B5D2B2C2B3C2B400E590549D
:200080000FF543C2B5D2B2C2B3D2B400E590540FF542C2B5D2B2D2B3C2B400E590540FF551
:2000A00041C2B5D2B2D2B3D2B400E590540FF5407548AA7549AA754AAA754BAA754CAA756A
:2000C0004DAA754EAA754FAA12010AD2B5C2B2C2B3C2B4E552C4F59000C2B7D2B7C2B7D27E
:2000E000B5C2B2C2B3D2B4E551C4F59000C2B7D2B7C2B7D2B5C2B2D2B3C2B4E550C4F5906E
:2001000000C2B7D2B7C2B70200304387805389CF4389204398D0758BF7758DF7D28E30988E
:20012000FDE599C298B4F0F6A2D0929BF5993099FDC2993098FDE599C298B4A0030201719A
:20014000B4AFDB74AFA2D0929BF5993099FDC29979087840E6A2D0929BF5993099FDC29983
:2001600008D9F174FFA2D0929BF5993099FDC29922790378503098FDA699C29808D9F63021
:1001800098FDC29874A0A2D0F5993099FDC2992229
:00000001FF
