:200000000200307581604387805389802389204398D0758BF7758DF7D28E308013E599C2E8
:2000200098B4F0F6A2D0929BF5993099FDC299307581607590FFC2B4C2B3C2B200E590548E
:200040000FF547C2B4C2B3D2B200E590540FF546C2B4D2B3C2B200E590540FF545C2B4D20A
:20006000B3D2B200E590540FF544D2B4C2B3C2B200E590540FF543D2B4C2B3D2B200E590C5
:20008000540FF542D2B4D2B3C2B200E590540FF541D2B4D2B3D2B200E590540FF5407548E0
:2000A000AA7549AA754AAA754BAA754CAA754DAA754EAA754FAA1200E0E552C4F59000C275
:2000C000B5D2B5C2B5E551C4F59000C2B6D2B6C2B6E550C4F59000C2B7D2B7C2B70200304B
:2000E0004387805389CF4389204398D0758BF7758DF7D28E3098FDE599C298B4F0F6A2D07B
:20010000929BF5993099FDC2993098FDE599C298B4A003020147B4AFDB74AFA2D0929BF5D0
:20012000993099FDC29979087840E6A2D0929BF5993099FDC29908D9F174FFA2D0929BF5BF
:20014000993099FDC29922790378503098FDA699C29808D9F63098FDC29874A0A2D0F59917
:060160003099FDC2992256
:00000001FF
