:03000000020926CC
:0C092600787FE4F6D8FD75810B020862B2
:10088B006C696E652068656C6C6F6F6F6F6F6F0056
:10089B0048656C6C6F2C20776F726C642100576508
:0708AB006C636F6D65210015
:0D091800EFD3940040077E7CDEFE1F80F3CD
:0109250022AF
:100907007580FFC290D291D292E58020E7FBC29218
:0109170022BD
:0308B200E4FFFE62
:1008B500AB07AA061209077F327E001209188D8040
:0D08C500C291EA4B24FF9290D292C292227F
:1008D200C2927D381208B27D081208B27D06E4FF8A
:0C08E200FE1208B57D0CE4FFFE0208B514
:10083700EF24FE600A14600D146010240380127404
:10084700C02DFD801074942DFD800A74D42DFD8079
:0B0857000474802DFDE4FFFE0208B5D4
:080800007BFF7A08798BE4FD0F
:100808008B088A09890A120837AB08AA09A90A12AB
:1008180008EE601A1208EEFDF5807F017E001208CE
:0F082800B57401250AF50AE43509F50980DB22CC
:100862001208D27BFF7A08799BE4FD7F0112080807
:100872007BFF7A0879A9E4FD7F021208087F031240
:0908820008007F0412080080DA6E
:1008EE00BB010689828A83E0225002E722BBFE0208
:0908FE00E32289828A83E493223B
:00000001FF
