:0300000002007D7E
:0C007D00787FE4F6D8FD7581090200616F
:03001B0002001EC2
:10001E00C0E0C0D0B290D2800509E5097002050893
:10002E00C39490E50894015008758DEA758B048091
:10003E001DC3E5099420E50894035008758DE075FD
:10004E008B18800AC28E750800750900C280D0D048
:03005E00D0E032BD
:10000300EF1FAA0670011E4A600BE4FDEDC394784E
:0500130050EE0D80F726
:0100180022C5
:10006100E4F508F509C290F589758DEA758B04D21E
:0C007100ABD2AFC28030B0FBD28E80F763
:00000001FF
