:200000007581607530011204F91205347530011204F97D809005771205679005577DC01213
:20002000054775300C1204F9757A00757B00757C00757D0012038E12003D020034B40040D6
:200040007530011204F9744675F0811205A4743A75F0821205A4E57A04540FF57A257BF576
:2000600080E57A540F12050975F0851205A4E57BC4540F12050975F0841205A4220200C743
:20008000B401FA7530011204F9744675F0811205A4743A75F0821205A4E57BC404540FC402
:2000A000F57BE57A257BF580E57A540F12050975F0851205A4E57BC4540F12050975F08445
:2000C0001205A42202010AB402FA7530011204F9745075F0C11205A4743A75F0C21205A49C
:2000E000E57C04540FF57C257DF5A0E57C540F12050975F0C51205A4E57DC4540F1205091E
:2001000075F0C41205A422020151B403FA7530011204F9745075F0C11205A4743A75F0C2A5
:200120001205A4E57DC404540FC4F57DE57C257DF5A0E57C540F12050975F0C51205A4E5FB
:200140007DC4540F12050975F0C41205A422020177B404FA7530011204F9744B75F080123E
:2001600005A4743175F0811205A4743475F0821205A42202019922B405F97530011204F9FF
:20018000744B75F0801205A4743175F0811205A4743575F0821205A422B4061F75300112BC
:2001A00004F9744B75F0801205A4743175F0811205A4743675F0821205A422B4071F7530B0
:2001C000011204F9744B75F0801205A4743175F0811205A4743775F0821205A422B4081F20
:2001E0007530011204F9744B75F0801205A4743275F0811205A4743475F0821205A422B484
:20020000091F7530011204F9744B75F0801205A4743275F0811205A4743575F0821205A410
:2002200022B40A1F7530011204F9744B75F0801205A4743275F0811205A4743675F08212C1
:2002400005A422B40B1F7530011204F9744B75F0801205A4743275F0811205A4743775F08A
:20026000821205A422B40C1C120A8D7530011204F99005917D8012058112069012092780C0
:20028000F80202A4B40DFA7530011204F99005967D81120581750B00750A001207CE12098C
:2002A000B780EA22B40E1C7530011204F990059B7D81120581750B00750A00120864120A09
:2002C0000680F8744975F0801205A4744375F0801205A4020AB222220075300C753106E5A8
:2002E00031FA232323FBC2F0C3744F9AF533795FE7700619DAFAD2F022AA31795FA833E6FB
:20030000971819DAFA502112032D400EA833795FAA31E6971819DAFA400B054FAA31A833DB
:20032000795F120339DBE022D2F0220212AA30784FC3E633F618DAFA22C3E697F61819DA00
:20034000F92200753006753106E530AB31FA2B04F532745FC39BF536F99AF5350A77001937
:20036000DAFBAA30A936784FC200E55F601486F0A427F730000205F0E5F01937F792001889
:20038000DAE8A835E4AA32C608DAFCDBD52212046070081205E51205E580F31205E512051C
:2003A000E512046070051205E580E37590FE00209405740002044B00209505740102044B0D
:2003C00000209605740202044B00209705740302044B007590FD00209405740402044B0093
:2003E000209505740502044B00209605740602044B00209705740702044B007590FB00204B
:200400009405740802044B00209505740902044B00209605740A02044B00209705740B0227
:20042000044B007590F700209405740C02044B00209505740D02044B00209605740E020418
:200440004B00209705740F02044B22C0E01205E512046070F81205E512046070F0D0E02281
:200460007590F00000000000E590440FF42200753007753107795FAA31AB30744FC39B049D
:20048000F8770019DAFB8017795FAA31C200E4C775F064A4A20037F79200E5F019DAF0E4DD
:2004A000D6C6C475F00AA42608AA311A795F27F719E437F7DAFADBD02202120078407F0891
:2004C000E4F608DFFC7F3879307E07C3E733F709DEFA7D087840E636D4F608DDF9DFE822DB
:2004E000A940098940E7F590D2B0C2B100C2B20000D2B21205F5DAE822C2B0C2B1853090CE
:20050000C2B200D2B21205F52290050E932230313233343536373839414243444546900526
:200520002393223031323334353637383920487A4DE4732E7530381204F975300F1204F973
:200540007530061204F9227C147E00EE0E938DF00D1205A4DCF52220205349474E414C20CC
:20056000546573747320207C0A7E00EE0E938DF00D1205A4DCF522202020204B4F4E584954
:200580004E7C057E00EE0E938DF00D1205A4DCF522465245513A505720203A445554593A3E
:2005A000E5208010F520B43A02800954F0B430F0E520540FA8F0F685F030E5201204F9F55C
:2005C00090D2B0C2B100C2B200D2B21205F52285F0301204F9F590D2B0C2B100C2B200D2FC
:2005E000B21205F522790F78FFD8FED9FA2278F0D8FED9FA227B1F7AFFDAFEDBFA22852097
:200600004F85214E85224D85234C85244B754A0075490022855A4A855B4B855C4C855D4D6C
:20062000855E4E855F4F22755A00755B0085275C85265D85255E85245F22755A00755B00B4
:2006400085235C85225D85215E85205F227A05E4F709DAFB227A0C78447954E709F608DA37
:20066000FA227A07E719F608DAFA22753007120675D530FA227515FF7514FFD514FDD515AE
:20068000F722C3E5829401F582E5839400F58322D287C281D287D282C280D280C280D28103
:2006A0003087FD799FE50960051205EE80031205E7C2812087FDD281D281C286C285C28433
:2006C00075A0FF000000E5A0F520D284C285E5A0F521C284D285E5A0F522D284D285E5A0C9
:2006E000F523C284C285D286E5A0F524D284C285E5A0F525C284D285E5A0F526D284D28539
:20070000E5A0F527C281754A24754B61754C39754DCA754E80754F001206271203421206B6
:200720005512063A1202D87830794F1206627536001204BB75160FE547540F7032E5465476
:20074000F07079E546540F706AE54554F0705BE545540F704CE54454F0703DE544540F70C0
:200760002EE54354F0701FE543540F7010800280547840120A38751600750A4022784012AD
:200780000A38750A40227840120A62750A20227841120A38750A10227841120A62750A08C3
:2007A000227842120A38750A04227842120A62750A02227843120A38750A01227843120A01
:2007C00062750A60227844120A38750A7022D283C282D28100C280D280C280000000308320
:2007E000FD00D281D281C286C285C28475A0FF000000E5A0F520D284C285E5A0F521C28455
:20080000D285E5A0F522D284D285E5A0F523794A12064D754F7D12063A12034212065579A3
:200820005A12064D755F321202D87830794F1206627536001204BBE544540F7008E5435421
:20084000F070048004801480097840120A38750A04227840120A62750A02227841120A38FC
:20086000750A0122D283C282D28100C280D280C2800000003083FD00D281D281C286C2852F
:20088000C28475A0FF000000E5A0F520D284C285E5A0F521C284D285E5A0F522D284D28546
:2008A000E5A0F523D283C282C28100C280D280C2800000003083FD00D281D281C286C28504
:2008C000C284E5A0F524D284C285E5A0F525C284D285E5A0F526D284D285E5A0F527C3E5C5
:2008E000243520F524E5253521F525E5263522F526E5273523F527794A12064D754E03758C
:200900004FE812063A1203421206551206271202D87830794F1206627536001204BB784041
:20092000120A38750A0222751BC5751C17750D0C750E0B750F0A750C0AE50AB4010575F080
:20094000CD8041B4020575F0CC8039B4040575F0CB8031B4080575F0CA8029B4100575F0FF
:20096000C98021B4200575F0C88019B4400575F0C78011B4600575F0C88009B4700575F05B
:20098000C9800122742E85F01A1205A47F0BE51B04B51A0104F51BA91C19891CE9B40F0A54
:2009A000E50A5460B46003750F0DE712051E851BF01205A4DFD822751BC5751C17750D0F1E
:2009C000750E0E750F0A750C0AE50AB4010575F0CD80B1B4020575F0CC80A9B4040375F02C
:2009E000CB742E85F01A1205A47F0AE51B04B51A0104F51BA91C19891CE712051E851BF0A0
:200A00001205A4DFE622E51212051E75F0CA1205A4E51112051E75F0CB1205A4742E75F001
:200A2000CC1205A4E51012051E75F0CD1205A4742575F0CF1205A422E6540FF510E654F0F6
:200A4000C4F51108E6540FF512E654F0C4F51308E6540FF514E654F0C4F51508E6540FF5E6
:200A60001622E654F0C4F51008E6540FF511E654F0C4F51208E6540FF513E654F0C4F514AF
:200A800008E6540FF515E654F0C4F51622D2B7C2B0C284C285C2B1D2B1C2B1752A00E475F7
:200AA0002B31F52D7530011204F9C2B5C28075790022C2B1120BF9120AE5120AFB120B0478
:200AC000120B1D120B2480EA120B2B12066B120B322275340075360175320875330475359B
:200AE00000120BD622900CAC753400753601753208753304753500120BD62212066B740132
:200B0000120C7422753400753602900CEC753208753302753500120BD6120AFB22900D0C6B
:200B200051E880D7900D4C51E880D0900D8C51E880C97400120B3822FC7540007541007541
:200B400041007436120C74E5402480120C74E5412480120C74F5F07430120C74EC120C5DDF
:200B6000120C5D0541E5F0B487D80540E540B420CE7540007541007436120C74E540248050
:200B8000120C74E5412488120C74F5F07430120C74EC120C5D120C5D0541E5F0B48FD80527
:200BA00040E540B420CE227850A932120C1F7489120C74E6120C5D08D9F92271CA75360159
:200BC00075340075320A120BA722743079507A10F70904DAFB22A932120C1FE535120C741F
:200BE000E493120C5DA3E493120C5D120C9DA3D9EFA9320536D533E02212066B7430120CE3
:200C0000747430120C747401120C7412066B12066B7406120C74740C120C7412066B22C09A
:200C200083C082C0E0900C36E536932534F535D0E0D082D0832200809088980000D2B2120F
:200C4000066BE59000C2B2221205F522C0E0C2B0D2B1D2B2002087FCC2B2D0E022120C4882
:200C600000D2B0C2B1D2B2F59000C2B2007590FF12066B22120C4800C2B0C2B1D2B2F59005
:200C800000C2B2007590FF12066B227E327F00DFFEDEFA227E067F18DFFEDEFA227D027E42
:200CA000BF7FBFDFFEDEFA0000DDF422BABCD6DDBFB5D0BEB5E7D7D3B9ABCBBE2020C8C861
:200CC000C7E9CEAAC4FAB7FECEF120207777772E6B782D736F632E636F6D202054454C30D0
:200CE0003537312D3838393134353837D4F8BEADB2D7BAA3C4D1CEAACBAE20202020B3FDA5
:200D0000C8B4CED7C9BDB2BBCAC7D4C647572D3438454441CAB5D1E9CFB5CDB32020534F74
:200D20005043CAB5D1E9CFB5CDB320204E696F73CAB5D1E9BFAAB7A2CFB5CDB3CFD6B4FAB8
:200D400044535020CAB5D1E9CFB5CDB3CFD6B4FABCC6CBE3BBFAD7E9B3C9D3EBCCE5CFB5E8
:200D6000BDE1B9B9CAB5D1E9CFB5CDB3C7B6C8EBCABDCAB5D1E9CFB5CDB32020B5E7D7D3AC
:200D8000C9E8BCC6BEBAC8FCB0E52020B8DFBEABB6C8BACFB3C9D0C5BAC5D4B4B2C9D3C3DF
:200DA000465047412D444453BCBCCAF5BEDFD3D041534B2046534B2050534B20414D2F4682
:0C0DC0004D2F504DB5F7D6C6CAE4B3F66F
:00000001FF
