:03000000020CE906
:0C0CE900787FE4F6D8FD75815F02001EE4
:100945004600540042696E6172792047616D650009
:100955003120666F722065617379003220666F728F
:10096500206D656469756D003320666F722064695A
:1009750066666963756C7400526561647900476FDA
:100985000025640073636F726520256400746F74BD
:10099500616C2025640046696E697368210030200A
:1009A500746F207265737461727400D4D4BED49F61
:1009B500A9D4D4BED48E9FD4D46A7E81A9BE7777BC
:1009C5007E9F8E9F0009030C0C0C1809030C0C0C60
:1009D5001809030C0C0C0C0C09030C0C0C1800006A
:1009E50000000100010001000000010001000000FD
:1009F50001000000000000000000010001000100EE
:100A050001000000010000000000010001000000DD
:100A150001000000010000000000010001000000CD
:100A250000000100010000000100000000000100BD
:100A350001000100010000000000000001000100AC
:100A4500010001000100010001000100010000009A
:100A5500010001000000010000000000000000008E
:100A6500010001000100010001000000000000007C
:100A7500010000000100000001000100000001006C
:100A85000100010001000100010001000100010059
:100A9500050009000F000A0006000A000B00060009
:100AA5000F0002000300050006000B000D000B00FF
:100AB500090005000D00050007000BFCACFD82FEDA
:100AC50006FE85FCDCFDA6FE22FE9AFD09FDC8FE9C
:0F0AD5003DFEAEFD34FDE2FE56FEC1FEFDFBF719
:0D0CCE00EFD3940040077E7CDEFE1F80F314
:010CDB0022F6
:100CBD007580FFC291D292D293E58020E7FBC2935B
:010CCD002204
:030C6200E4FFFEAE
:100C6500AB07AA06120CBD7F327E00120CCE8D801A
:0D0C7500C292EA4B24FF9291D293C29322C7
:100C3E00C2937D38120C627D08120C627D06E4FFB1
:100C4E00FE120C657D0CE4FFFE120C657D01E4FFC7
:040C5E00FE020C6521
:100BEC00EF24FE600A14600D14601024038012744C
:100BFC00C02DFD801074942DFD800A74D42DFD80C1
:0B0C0C000474802DFDE4FFFE020C6567
:080BB500AD2C7B007A00792FC2
:100BBD008B4C8A4D894E120BECAB4CAA4DA94E12A3
:100BCD000850601A120850FDF5807F017E00120C4E
:0F0BDD00657401254EF54EE4354DF54D80DB2254
:100B780078507C007D007BFF7A0A79E07E007F0454
:100B880012082AE4FF74502FF8E6F5B0007E80E4DE
:100B9800FDE5B05E7008EF25E025E02DFF22EEC3ED
:0C0BA80013FE0DBD04EB0FBF04DB7F103B
:010BB400221E
:100AE400E4F54CF54D74CA254DF5827409354CF581
:100AF40083E493701074B0254DF5827409354CF578
:100B040083E493606EE4F54EF54F74CA254DF58287
:100B14007409354CF583E49375F014A4FFC3E54FD1
:100B24009FE54E95F05037120B78EF6046B290E493
:100B3400FFFE74B0254DF5827409354CF583E493BA
:100B440075F00584FDC3EF9DEE940050070FBF00C0
:100B5400010E80DE054FE54F70B0054E80AC7F0A74
:100B64007E00120CCE054DE54D6003020AE9054CEA
:030B7400020AE989
:010B7700225B
:03000300DFFE22FB
:100C8200AE07AF061EEF600C7FF51200037FF51270
:050C9200000380EE22CA
:020C9700AD07A7
:100C9900E4FCECC39D50087FFA120C820C80F3C26D
:010CA9008CBE
:010CAA002227
:0D000E00850B8C850E8AD28CAF08020C97F2
:10001E007522107523107524107525FF7526FEE4C4
:10002E00F527F528F548F549438911D2AFD2A9D263
:10003E0088D2AB120C3E120C3ED3E5269400E52579
:10004E00648094804073AC10AD11AE25AF261208BB
:10005E007BED4C7064AC10AD11AE25AF2612087B53
:10006E00EF25E0FFEE33FE74922FF582740A3EF513
:10007E0083740193B5220BE493B40006752D0075BD
:10008E002E01E52E452D700E7BFF7A097945FD7FF9
:10009E0001120BBD8023E52E6401452D701BE52258
:1000AE00641060157BFF7A097947E4FD7F01120B1E
:1000BE00BD0528E52870020527E54945486003027D
:1000CE0001667BFF7A097949FD7F01120BBD7BFF2B
:1000DE007A097955E4FD7F02120BBD7BFF7A09790F
:1000EE0060E4FD7F03120BBD7BFF7A09796DE4FDA1
:1000FE007F04120BBDE52364106003020044120B53
:10010E00788F23120B788F24E523B40114754800E1
:10011E00754901750900750A067510007511038081
:10012E00D4E523B4021475480075490175090075AC
:10013E000A0E75100075110280BBE523B403147509
:10014E004800754901750900750A1675100075117C
:10015E000180A2752310809DE526B4FE1CE525B412
:10016E00FF177BFF7A09797D7D087F02120BBD0593
:10017E0026E52670230525801FE526B4FF22E525FA
:10018E00B4FF1D7BFF7A0979837D087F02120BBDB8
:10019E000526E526700205257F0A120C97020044FB
:1001AE00754AF5754B0F752310752900752A01E5F3
:1001BE000A2401FFE43509FEC3E52A9FE5299E4086
:1001CE00030202EFAC29AD2AAE10AF11120869C3BB
:1001DE00EF9526F52CEE9525F52BC3E52C9401E530
:1001EE002B6480948050030202E4D3E52C9413E533
:1001FE002B6480948040030202E4754FFF75500912
:10020E00755186E52A25E0FFE52933FE74E22FF5C8
:10021E008274093EF583E493F552740193F5537B92
:10022E00007A00792F12045A7F01120BB5754FFF19
:10023E00755009755186E52A25E0FFE52933FE74D0
:10024E000E2FF582740A3EF583E493F552740193F2
:10025E00F5537B007A00792F12045A7F02120BB5E8
:10026E00754FFF755009755186E52A25E0FFE52982
:10027E0033FE743A2FF582740A3EF583E493F552F9
:10028E00740193F5537B007A00792F12045AAD2C2A
:10029E007B007A00792F7F03120BBD754FFF7550CF
:1002AE0009755186E52A25E0FFE52933FE74662F90
:1002BE00F582740A3EF583E493F552740193F55377
:1002CE007B007A00792F12045AAD2C7B007A0079CC
:1002DE002F7F04120BBD052AE52A700205290201A3
:1002EE00BD0526E52670020525E523641060030290
:1002FE000044E54A7003020044752210E4F52DF522
:10030E002E154AE54BD39400400AE54AB401057513
:10031E004AF5154BC28CC28E120B788F23E52364DF
:10032E00106031120B788F24E523B52427F522E5D2
:10033E002225E024C0F582E4340AF583E493F50C1B
:10034E00740193F50DD28E120B78EFC3941040F713
:10035E00C28ED290AC10AD11AE09AF0A120869EF81
:10036E002401FFE43EFED3E5269FE5259E500302C1
:10037E0002F7754FFF7550097551898527528528EB
:10038E00537B007A00793412045A754FFF75500969
:10039E00755192850952850A537B007A00793E1277
:1003AE00045A7BFF7A09799B7D027F01120BBD7B7C
:1003BE00007A0079347D027F02120BBD7B007A0039
:1003CE00793E7D027F03120BBD7BFF7A0979A37DF7
:1003DE00027F04120BBD120AE4E4F527F5287525F9
:1003EE00FF7526FEF548F5497F0F120C9702004463
:03000B00020CDC08
:0D0CDC00C28CB290850B8C850E8AD28C32B2
:03001B00020CAB29
:100CAB00C0E0C28E850D8BE50CF58DB290D28ED047
:020CBB00E03225
:10075A00E709F608DFFA8046E709F208DFFA803E81
:10076A0088828C83E709F0A3DFFA8032E309F6086E
:10077A00DFFA8078E309F208DFFA807088828C83D6
:10078A00E309F0A3DFFA806489828A83E0A3F6088A
:10079A00DFFA805889828A83E0A3F208DFFA804C64
:1007AA0080D280FA80C680D4806980F2803380103B
:1007BA0080A680EA809A80A880DA80E280CA8033A4
:1007CA0089828A83ECFAE493A3C8C582C8CCC5831C
:1007DA00CCF0A3C8C582C8CCC583CCDFE9DEE780EC
:1007EA000D89828A83E493A3F608DFF9ECFAA9F06B
:1007FA00EDFB2289828A83ECFAE0A3C8C582C8CCC1
:10080A00C583CCF0A3C8C582C8CCC583CCDFEADED9
:10081A00E880DB89828A83E493A3F208DFF980CC3B
:10082A0088F0EF60010E4E60C388F0ED2402B40434
:10083A000050B9F582EB2402B4040050AF232345DB
:06084A0082239007AA734F
:10085000BB010689828A83E0225002E722BBFE02A6
:09086000E32289828A83E49322D9
:10086900EF8DF0A4A8F0CF8CF0A428CE8DF0A42EA3
:02087900FE225D
:10087B00BC000BBE0029EF8DF084FFADF022E4CC61
:10088B00F875F008EF2FFFEE33FEEC33FCEE9DEC2A
:10089B00984005FCEE9DFE0FD5F0E9E4CEFD22ED70
:1008AB00F8F5F0EE8420D21CFEADF075F008EF2FBA
:1008BB00FFED33FD4007985006D5F0F222C398FDAB
:0508CB000FD5F0EA2248
:1003FE00E55B244FF8E6055B22784C300702784F18
:10040E00E475F00112090F0208502000EB7F2ED286
:10041E00008018EF540F2490D43440D4FF30040BD6
:10042E00EF24BFB41A0050032461FFE55C6002158F
:10043E005C055FE55F7002055E30070D784CE47574
:10044E00F00112090FEF0208FD020C177403D20718
:10045E008003E4C207F55B8B4C8A4D894EE4F55C54
:10046E00F55EF55FE55C60077F2012043980F57557
:10047E005DFFC201C200C202C203C205C206C208AB
:10048E00120407FF700D3007057F0012044AAF5F9C
:10049E00AE5E22B4255FC2D5C204120407FF24D07B
:1004AE00B40A00501A75F00A785C30D50508B6FF0C
:1004BE000106C6A426F620D5047002D20380D924E4
:1004CE00CFB41A00EF5004C2E5D20402064AD2019C
:1004DE0080C6D20080C0D20280BCD2D580BAD205EE
:1004EE0080B47F201204392002077401B55C0040ED
:1004FE00F11203FEFF120439020472D208D20680F2
:10050E00951203FEFB1203FEFA1203FEF94A4B701C
:10051E0006791B7A077BFF20022EE55C602A7E009F
:10052E008E827583001208D060060EEE655D70F047
:10053E00C2D5EBC0E0EAC0E0E9C0E0EE120691D011
:10054E00E0F9D0E0FAD0E0FB120850FF60AAEBC051
:10055E00E0EAC0E0E9C0E0120439D0E02401F9D0AD
:10056E00E03400FAD0E0FBE55D0460DCD55DD980B7
:10057E00877BFF7A06798DD202809C791080027972
:10058E0008C206C2088008D2D5790A8004790AC248
:10059E00D5E55D047002F55DE4FAFDFEFF1203FE83
:1005AE00FC7B082001131203FEFD7B1030000A12A3
:1005BE0003FEFE1203FEFF7B20EC3382D592D55054
:1005CE0013C3E43000069FFFE49EFEE42001039D6A
:1005DE00FDE49CFCE4CBF8C201EC700CCFCECDCC8C
:1005EE00E824F8F870F38017C3EF33FFEE33FEED17
:1005FE0033FDEC33FCEB33FB994002FB0FD8E9EBF8
:10060E00300105F8D0E0C448B201C0E00AEC4D4E0E
:10061E004F78207B0070C2EAB55D0040BCC0E0128E
:10062E000693D0F0D0E0200104C4C0E0C4B201C0F3
:10063E00F0120422D0F0D5F0EB02047212091F055D
:10064E000F5305895804E04C04DC42058D4F059587
:0F065E004405954904F543059B55057F46057FE7
:10066D0045057F47073B5004E42D04E82E050B2B71
:10067D0004EC2305092007242A04A44800000503DF
:10068D003F3F3F00790AA2D5200314300509B91068
:10069D00020404B9080104A2D52006025001042069
:1006AD0002689202B55C005034C0E07F203003191F
:1006BD007F30A20272067205500F1206EAC202C204
:1006CD0006C205C2087F30800F300503E9C0E01275
:1006DD000439300503D0E0F9D0E0B55CCC30051716
:1006ED007F30B9100C1204397F583004077F7880A1
:1006FD0003B908031204393002057F2D0204397F36
:10070D00202008F87F2B2006F322920280CF286E3E
:10071D00756C6C2900D2011203FE3001F8C201780C
:10072D005C30D50108F60204A42D5043495812033C
:10073D00FE2403B405004001E49007369312042A09
:0D074D00743A12042AD203755C0402058977
:1008D000BB010CE58229F582E5833AF583E02250DD
:1008E00006E92582F8E622BBFE06E92582F8E22227
:0D08F000E58229F582E5833AF583E4932241
:1008FD00BB010689828A83F0225002F722BBFE01DA
:02090D00F322D3
:10090F00FAE6FB0808E6F925F0F618E6CA3AF622E9
:10091F00D083D082F8E4937012740193700DA3A367
:10092F0093F8740193F5828883E47374029368607B
:06093F00EFA3A3A380DF7B
:100C1700EFB40A07740D120C22740A309811A899C0
:100C2700B8130CC2983098FDA899C298B811F6303D
:070C370099FDC299F5992215
:00000001FF
